{
  "contractName": "Faucet",
  "abi": [
    {
      "inputs": [],
      "name": "numOfFunders",
      "outputs": [
        {
          "internalType": "uint256",
          "name": "",
          "type": "uint256"
        }
      ],
      "stateMutability": "view",
      "type": "function",
      "constant": true
    },
    {
      "inputs": [],
      "name": "owner",
      "outputs": [
        {
          "internalType": "address",
          "name": "",
          "type": "address"
        }
      ],
      "stateMutability": "view",
      "type": "function",
      "constant": true
    },
    {
      "stateMutability": "payable",
      "type": "receive",
      "payable": true
    },
    {
      "inputs": [
        {
          "internalType": "address",
          "name": "newOwner",
          "type": "address"
        }
      ],
      "name": "transferOwnership",
      "outputs": [],
      "stateMutability": "nonpayable",
      "type": "function"
    },
    {
      "inputs": [],
      "name": "addFunds",
      "outputs": [],
      "stateMutability": "payable",
      "type": "function",
      "payable": true
    },
    {
      "inputs": [
        {
          "internalType": "uint256",
          "name": "amount",
          "type": "uint256"
        }
      ],
      "name": "withdrawFunds",
      "outputs": [],
      "stateMutability": "nonpayable",
      "type": "function"
    },
    {
      "inputs": [
        {
          "internalType": "uint256",
          "name": "index",
          "type": "uint256"
        }
      ],
      "name": "getFunderAt",
      "outputs": [
        {
          "internalType": "address",
          "name": "",
          "type": "address"
        }
      ],
      "stateMutability": "view",
      "type": "function",
      "constant": true
    },
    {
      "inputs": [],
      "name": "getAllFunders",
      "outputs": [
        {
          "internalType": "address[]",
          "name": "",
          "type": "address[]"
        }
      ],
      "stateMutability": "view",
      "type": "function",
      "constant": true
    }
  ],
  "bytecode": "0x608060405234801561001057600080fd5b50336000806101000a81548173ffffffffffffffffffffffffffffffffffffffff021916908373ffffffffffffffffffffffffffffffffffffffff1602179055506109ca806100606000396000f3fe6080604052600436106100745760003560e01c80638da5cb5b1161004e5780638da5cb5b14610111578063a26759cb1461013c578063af7f2c9b14610146578063f2fde38b146101715761007b565b8063155dd5ee146100805780636fbbb55d146100a957806389377ca8146100d45761007b565b3661007b57005b600080fd5b34801561008c57600080fd5b506100a760048036038101906100a29190610620565b61019a565b005b3480156100b557600080fd5b506100be610231565b6040516100cb919061074d565b60405180910390f35b3480156100e057600080fd5b506100fb60048036038101906100f69190610620565b610377565b6040516101089190610732565b60405180910390f35b34801561011d57600080fd5b506101266103b4565b6040516101339190610732565b60405180910390f35b6101446103d8565b005b34801561015257600080fd5b5061015b6104f6565b60405161016891906107af565b60405180910390f35b34801561017d57600080fd5b50610198600480360381019061019391906105f7565b6104fc565b005b80670de0b6b3a76400008111156101e6576040517f08c379a00000000000000000000000000000000000000000000000000000000081526004016101dd9061078f565b60405180910390fd5b3373ffffffffffffffffffffffffffffffffffffffff166108fc839081150290604051600060405180830381858888f1935050505015801561022c573d6000803e3d6000fd5b505050565b6060600060015467ffffffffffffffff811115610277577f4e487b7100000000000000000000000000000000000000000000000000000000600052604160045260246000fd5b6040519080825280602002602001820160405280156102a55781602001602082028036833780820191505090505b50905060005b60015481101561036f576003600082815260200190815260200160002060009054906101000a900473ffffffffffffffffffffffffffffffffffffffff16828281518110610322577f4e487b7100000000000000000000000000000000000000000000000000000000600052603260045260246000fd5b602002602001019073ffffffffffffffffffffffffffffffffffffffff16908173ffffffffffffffffffffffffffffffffffffffff1681525050808061036790610850565b9150506102ab565b508091505090565b60006003600083815260200190815260200160002060009054906101000a900473ffffffffffffffffffffffffffffffffffffffff169050919050565b60008054906101000a900473ffffffffffffffffffffffffffffffffffffffff1681565b6000339050600260008273ffffffffffffffffffffffffffffffffffffffff1673ffffffffffffffffffffffffffffffffffffffff16815260200190815260200160002060009054906101000a900460ff166104f3576001600260008373ffffffffffffffffffffffffffffffffffffffff1673ffffffffffffffffffffffffffffffffffffffff16815260200190815260200160002060006101000a81548160ff0219169083151502179055508060036000600154815260200190815260200160002060006101000a81548173ffffffffffffffffffffffffffffffffffffffff021916908373ffffffffffffffffffffffffffffffffffffffff160217905550600160008154809291906104ed90610850565b91905055505b50565b60015481565b60008054906101000a900473ffffffffffffffffffffffffffffffffffffffff1673ffffffffffffffffffffffffffffffffffffffff163373ffffffffffffffffffffffffffffffffffffffff161461058a576040517f08c379a00000000000000000000000000000000000000000000000000000000081526004016105819061076f565b60405180910390fd5b806000806101000a81548173ffffffffffffffffffffffffffffffffffffffff021916908373ffffffffffffffffffffffffffffffffffffffff16021790555050565b6000813590506105dc81610966565b92915050565b6000813590506105f18161097d565b92915050565b60006020828403121561060957600080fd5b6000610617848285016105cd565b91505092915050565b60006020828403121561063257600080fd5b6000610640848285016105e2565b91505092915050565b60006106558383610661565b60208301905092915050565b61066a81610814565b82525050565b61067981610814565b82525050565b600061068a826107da565b61069481856107f2565b935061069f836107ca565b8060005b838110156106d05781516106b78882610649565b97506106c2836107e5565b9250506001810190506106a3565b5085935050505092915050565b60006106ea602b83610803565b91506106f5826108c8565b604082019050919050565b600061070d602183610803565b915061071882610917565b604082019050919050565b61072c81610846565b82525050565b60006020820190506107476000830184610670565b92915050565b60006020820190508181036000830152610767818461067f565b905092915050565b60006020820190508181036000830152610788816106dd565b9050919050565b600060208201905081810360008301526107a881610700565b9050919050565b60006020820190506107c46000830184610723565b92915050565b6000819050602082019050919050565b600081519050919050565b6000602082019050919050565b600082825260208201905092915050565b600082825260208201905092915050565b600061081f82610826565b9050919050565b600073ffffffffffffffffffffffffffffffffffffffff82169050919050565b6000819050919050565b600061085b82610846565b91507fffffffffffffffffffffffffffffffffffffffffffffffffffffffffffffffff82141561088e5761088d610899565b5b600182019050919050565b7f4e487b7100000000000000000000000000000000000000000000000000000000600052601160045260246000fd5b7f4f6e6c7920636f6e7472616374206f776e65722063616e20706572666f726d2060008201527f7468697320616374696f6e000000000000000000000000000000000000000000602082015250565b7f43616e6e6f74207769746864726177206d6f7265207468616e20302e3120455460008201527f4800000000000000000000000000000000000000000000000000000000000000602082015250565b61096f81610814565b811461097a57600080fd5b50565b61098681610846565b811461099157600080fd5b5056fea2646970667358221220e26ab00e1ed4be50a1394be5068d62745c13069144bc0a479059f7d0100c0bf764736f6c63430008040033",
  "immutableReferences": {},
  "source": "// SPDX-License-Identifier: MIT\r\npragma solidity >=0.4.22 <0.9.0;\r\n\r\nimport './Owned.sol';\r\nimport './IFaucet.sol';\r\n\r\ncontract Faucet is Owned, IFaucet {\r\nuint public numOfFunders;\r\nmapping(address=>bool) private funders;\r\nmapping(uint=>address) private lutFunders;\r\n\r\nreceive() external payable{}\r\n\r\nmodifier limitWithdraw(uint amount){\r\n    require(amount <= 1000000000000000000, 'Cannot withdraw more than 0.1 ETH' );\r\n    _;\r\n}\r\n\r\nfunction transferOwnership(address newOwner) external onlyOwner{\r\n    owner = newOwner;\r\n}\r\n\r\nfunction addFunds() external override payable{\r\n    address funder = msg.sender;\r\n\r\n    if(!funders[funder]){\r\n        funders[funder] = true;\r\n        lutFunders[numOfFunders] = funder;\r\n        numOfFunders++;\r\n    }\r\n}\r\n\r\nfunction withdrawFunds(uint amount) external override limitWithdraw(amount) {\r\n    payable(msg.sender).transfer(amount);\r\n}\r\n\r\nfunction getFunderAt(uint index) external view returns(address){\r\n    return lutFunders[index];\r\n}\r\n\r\nfunction getAllFunders() external view returns( address[] memory){\r\n    address[] memory _funders = new address[](numOfFunders);\r\n\r\n    for(uint i = 0; i < numOfFunders; i++){\r\n        _funders[i] = lutFunders[i];\r\n    }\r\n\r\n    return _funders;\r\n}\r\n}",
  "sourcePath": "C:\\Users\\1\\Desktop\\Ethereum\\faucet2\\contracts\\FaucetContract.sol",
  "compiler": {
    "name": "solc",
    "version": "0.8.4+commit.c7e474f2.Emscripten.clang"
  },
  "schemaVersion": "3.4.3",
  "updatedAt": "2021-11-16T16:27:12.060Z",
  "networkType": "ethereum",
  "devdoc": {
    "kind": "dev",
    "methods": {},
    "version": 1
  },
  "userdoc": {
    "kind": "user",
    "methods": {},
    "version": 1
  }
}